S01F000068616E642070726F6A6563742073696D756C6174696F6E2E73726563EE
S11300000C942A000C9447000C9447000C9447006D
S11300100C9447000C9447000C9447000C94470040
S11300200C9447000C9478050C9447000C944700FA
S11300300C9447000C9447000C9429050C94470039
S11300400C9447000C9447000C9447000C94470010
S11300500C94470011241FBECFE5D4E0DEBFCDBF12
S113006010E0A0E6B0E0E4EDFBE002C005900D92E4
S1130070A83BB107D9F710E0A8EBB0E001C01D928E
S1130080AD3EB107E1F70E9402030C94E8050C941D
S1130090000086B18C6086B987B1806687B9379ACB
S11300A0369A08958FB582608FBD8EB589618EBDF5
S11300B08FB580688FBD8FB580628FBD8FE19EE460
S11300C097BD86BD08958091C2009091C3009BBDE9
S11300D08ABD08958091C0009091C10099BD88BDEA
S11300E008951BBC1ABC089519BC18BC089583B7A5
S11300F0836083BF89B7816089BF12BE089583B7C7
S11301008E7F83BF83B78D7F83BF89B78E7F89BF7F
S113011089EF90E00197F1F700C0000012BE089546
S113012008950895AF9A83E08A95F1F7000085B3A6
S113013015BA089517BAAE9A85B3807C85BBC79B60
S113014004C00E949200C799FCCF8FEF87BB08952B
S1130150CF93C82F0E949A00C8BB85B38F7985BB03
S11301600E94920018BACF910895CF93C82F0E948D
S11301709A00C8BBAE98AD9A0E94920018BACF916B
S11301800895CF93C82F0E949A00C8BBAE98AD9A29
S11301900E94920018BACF910895CF93DF93EC0197
S11301A08881882331F021960E94B50089918823A3
S11301B0D9F7DF91CF91089581EE94E00197F1F79B
S11301C000C0000090989198949881EE94E0019773
S11301D0F1F700C000008AEC0E94A80083EF91E0D0
S11301E00197F1F700C0000080E690E00E94CD0086
S11301F083EF91E00197F1F700C000008AEC0E94C0
S1130200A80083EF91E00197F1F700C000008BE6AE
S113021090E00E94CD00089581EE94E00197F1F7FB
S113022000C00000919A909881EE94E00197F1F754
S113023000C000008AEC0E94A80083EF91E00197BF
S1130240F1F700C0000080E690E00E94CD0083EF4B
S113025091E00197F1F700C000008AEC0E94A80029
S113026083EF91E00197F1F700C0000083E790E08D
S11302700E94CD00089581EE94E00197F1F700C04B
S11302800000909A919881EE94E00197F1F700C0F4
S113029000008AEC0E94A80083EF91E00197F1F737
S11302A000C0000080E690E00E94CD0083EF91E062
S11302B00197F1F700C000008AEC0E94A80083EFC8
S11302C091E00197F1F700C000008EE790E00E94F2
S11302D0CD00089581EE94E00197F1F700C000008D
S11302E096989798959881EE94E00197F1F700C05D
S11302F0000080EC0E94A80083EF91E00197F1F7E1
S113030000C0000088E890E00E94CD0083EF91E0F7
S11303100197F1F700C0000080EC0E94A80083EF71
S113032091E00197F1F700C000008BE690E00E9495
S1130330CD00089581EE94E00197F1F700C000002C
S1130340979A969881EE94E00197F1F700C0000027
S113035080EC0E94A80083EF91E00197F1F700C0C0
S1130360000088E890E00E94CD0083EF91E00197BF
S1130370F1F700C0000080EC0E94A80083EF91E038
S11303800197F1F700C0000082E990E00E94CD00DF
S1130390089581EE94E00197F1F700C00000969A69
S11303A0979881EE94E00197F1F700C0000080EC8B
S11303B00E94A80083EF91E00197F1F700C00000CC
S11303C088E890E00E94CD0083EF91E00197F1F777
S11303D000C0000080EC0E94A80083EF91E0019728
S11303E0F1F700C000008AE990E00E94CD00089572
S11303F0CF93DF93EC018881882331F021960E940A
S1130400B50089918823D9F7DF91CF910895809120
S1130410BC009091BD008130910521F0823091059E
S113042041F514C08091CA009091CB0099231CF42B
S11304300E949A010895181619061CF40E94C90115
S113044008950097B1F40E946A0108958091C8004C
S11304509091C90099231CF40E940C010895181668
S113046019061CF40E943B010895009711F40E94A0
S1130470DC0008958091BC009091BD00813091050D
S113048021F082309105C9F40CC08091CA0090918A
S1130490CB0044968932910520F41092CB0010923F
S11304A0CA008091C8009091C90044968932910590
S11304B020F41092C9001092C80008958091BC00E5
S11304C09091BD008130910529F08230910509F0A9
S11304D042C021C08091CA009091CB009C012C5E47
S11304E03F4F2932310528F41092C7001092C600FC
S11304F00895181619062CF49093C7008093C6002B
S11305000895992344F5909581959F4F9093C70042
S11305108093C60008958091C8009091C9009C0101
S11305202C5E3F4F2932310528F41092C5001092F9
S1130530C4000895181619062CF49093C5008093EE
S1130540C400089599233CF4909581959F4F90930E
S1130550C5008093C40008958091BC009091BD00B3
S11305608130910591F44091C6005091C70026E274
S113057030E0429FC001439F900D529F900D112483
S11305809093C3008093C20008958091BC00909121
S1130590BD008230910589F44091C4005091C5009A
S11305A026E230E0429FC001439F900D529F900D80
S11305B011249093C1008093C00008958091BC00E1
S11305C09091BD008130910559F48091BA009091C9
S11305D0BB00835092409093CB008093CA0008954F
S11305E08091BC009091BD008230910551F48091BE
S11305F0B8009091B900815092409093C9008093C3
S1130600C8000895CF93DF93CDB7DEB76C970FB6CC
S1130610F894DEBF0FBECDBF84B7806884BF84B7B3
S1130620806884BF8FEF81BB84B3806E84BB12BAB1
S1130630789485EA9EE00197F1F700C0000081E01C
S11306400E94A80083EF91E00197F1F700C0000039
S113065088E30E94A80090E19A95F1F700C08CE02D
S11306600E94A80080E18A95F1F700C080E80E940A
S1130670A80083EF91E00197F1F700C0000084EA3D
S113068090E00E94CD0083EF91E00197F1F700C064
S113069000008AE80E94A80083EF91E00197F1F737
S11306A000C0000086EA90E00E94CD0083EF91E054
S11306B00197F1F700C0000084E90E94A80083EFCD
S11306C091E00197F1F700C0000088EA90E00E94F1
S11306D0CD0083EF91E00197F1F700C000008EE9AF
S11306E00E94A80083EF91E00197F1F700C0000099
S11306F08AEA90E00E94CD0083EF91E00197F1F740
S113070000C0000084ED0E94A80083EF91E00197EF
S1130710F1F700C000008CEA90E00E94CD0083EF66
S113072091E00197F1F700C000008EED0E94A8004F
S113073083EF91E00197F1F700C000008FEA90E0A9
S11307400E94CD0083EF91E00197F1F700C0000013
S11307500E9449000E94520002EB10E087E893E1F6
S11307600197F1F700C00000369A87E893E10197FA
S1130770F1F700C000008091BC009091BD00813071
S1130780910509F0AFC08091BA009091BB00BE0101
S1130790635F7F4F4AE050E00E94A30582E80E9415
S11307A0A80083EF91E00197F1F700C00000C801B1
S11307B00E94CD0083EF91E00197F1F700C00000A3
S11307C082E80E94A80083EF91E00197F1F700C04E
S11307D00000CE010D960E94F80183EF91E001978D
S11307E0F1F700C000000E94DE0283EC99E001975B
S11307F0F1F700C000000E943A0283EC99E00197EF
S1130800F1F700C000000E9407028091CA00909195
S1130810CB00BE01675F7F4F4AE050E00E94A30512
S113082086E90E94A80083EF91E00197F1F700C0E8
S11308300000C8010E94CD0083EF91E00197F1F719
S113084000C0000086E90E94A80083EF91E00197B0
S1130850F1F700C00000CE0109960E94F80183EF71
S113086091E00197F1F700C0000087E893E1019758
S1130870F1F700C000000E945E020E94AC02809169
S1130880C2009091C300BE01695E7F4F4AE050E010
S11308900E94A30587ED0E94A80083EF91E00197D1
S11308A0F1F700C00000C8010E94CD0083EF91E081
S11308B00197F1F700C0000087ED0E94A80083EFC4
S11308C091E00197F1F700C00000CE0147960E9425
S11308D0F80183EF91E00197F1F700C000000E9456
S11308E063003CCF8091BC009091BD0082309105A3
S11308F009F034CF8091B8009091B900BE016B5FCC
S11309007F4F4AE050E00E94A3058CE80E94A800B3
S113091083EF91E00197F1F700C00000C8010E9445
S1130920CD0083EF91E00197F1F700C000008CE85F
S11309300E94A80083EF91E00197F1F700C0000046
S1130940CE0105960E94F80183EF91E00197F1F73B
S113095000C000000E94DE0283EC99E00197F1F7E9
S113096000C000000E943A0283EC99E00197F1F77D
S113097000C000000E9407028091C8009091C90045
S1130980BE016F5F7F4F4AE050E00E94A30580EAFA
S11309900E94A80083EF91E00197F1F700C00000E6
S11309A0C8010E94CD0083EF91E00197F1F700C0E8
S11309B0000080EA0E94A80083EF91E00197F1F71C
S11309C000C00000CE0101960E94F80183EF91E07F
S11309D00197F1F700C0000087E893E10197F1F770
S11309E000C000000E945E020E94AC028091C00020
S11309F09091C100BE016F5E7F4F4AE050E00E94BB
S1130A00A30581EE0E94A80083EF91E00197F1F71E
S1130A1000C00000C8010E94CD0083EF91E001975F
S1130A20F1F700C0000081EE0E94A80083EF91E07E
S1130A300197F1F700C00000CE0141960E94F80131
S1130A4083EF91E00197F1F700C000000E946A0073
S1130A5085CE1F920F920FB60F9211242F933F93BE
S1130A608F939F9384B125B190E0082E892F000CB9
S1130A70881F990B000C881F991F30E0220F331F29
S1130A80220F331F822B932B9093CD008093CC00A5
S1130A9087B1803619F0813611F511C08091CC00F0
S1130AA09091CD009093BB008093BA0081E090E0D8
S1130AB09093BD008093BC0081E687B910C08091FB
S1130AC0CC009091CD009093B9008093B80082E05F
S1130AD090E09093BD008093BC0080E687B99F911D
S1130AE08F913F912F910F900FBE0F901F901895EB
S1130AF01F920F920FB60F9211248F939F938091A0
S1130B00EC008F5F8093EC008091EC008D33A1F4B6
S1130B101092EC008091EB008F5F8093EB0095B313
S1130B2088E0892785BB8091EB00843128F01092FE
S1130B30EB0081E08093EA009F918F910F900FBEAC
S1130B400F901F901895FB019F01E8944230C4F068
S1130B504532B4F44A3029F497FB1EF490958195FC
S1130B609F4F642F77270E94D405805D8A330CF051
S1130B70895D8193CB010097A1F716F45DE251934F
S1130B801082C9010C94C405DC01FC01672F71912A
S1130B907723E1F7329704C07C916D93708362915F
S1130BA0AE17BF07C8F30895AA1BBB1B51E107C0CA
S1130BB0AA1FBB1FA617B70710F0A61BB70B881FE9
S1130BC0991F5A95A9F780959095BC01CD01089578
S1070BD0F894FFCFC3
S1130BD420202020202020202020004E455554523F
S1130BE4414C00434C4F534520434C4157004F5014
S1130BF4454E20434C415700202020202020202013
S1130C0420004445585452414C0053494E495354CE
S1130C1452414C0058005900410042003141003116
S10B0C244200202020202000E2
S9030000FC
